:020000040800F2
:10000000D053002061020008E94900084735000884
:10001000E5490008D5090008156500080000000042
:10002000000000000000000000000000A101000826
:100030008F10000800000000FD010008D95E0008D4
:100040007B0200087B0200087B0200087B0200089C
:100050007B0200087B0200087B0200087B0200088C
:100060007B0200087B0200087B0200087B0200087C
:100070007B020008811000087B0200087B02000858
:1000800083100008851000087B0200087B0200082E
:10009000D9090008E90900087B0200087B02000872
:1000A0007B0200087B0200087B0200087B0200083C
:1000B0007B0200087B0200087B0200087B0200082C
:1000C0007B0200087B0200087B0200087B0200081C
:1000D0007B020008D1640008D96400087B02000894
:1000E0007B0200087B0200087B0200087B020008FC
:1000F0007B0200087B0200087B0200087B020008EC
:100100007B0200087B0200087B0200087B020008DB
:10011000216400087B020008316300084163000885
:100120007B02000887100008891000087B02000885
:100130007B0200087B0200087B0200087B020008AB
:10014000F9090008090A00087B0200087B02000880
:100150007B0200088B1000088D100008E164000885
:100160007B0200087B0200087B0200087B0200087B
:100170007B0200087B0200087B02000800000000F0
:100180007B0200087B020008DFF810D000F026FB9D
:1001900000480047AD6F0008AFF30080D053002047
:1001A0002C4B19680868B0E8F04F80F30988BFF35A
:1001B0006F8F4FF0000080F311887047000000003F
:1001C00008480068006880F308884FF0000080F35A
:1001D000148862B661B6BFF34F8FBFF36F8F00DF35
:1001E00000BF00BF08ED00E0DFF80C00016841F43B
:1001F00070010160704700BF88ED00E0EFF30980F7
:10020000BFF36F8F134B1A681EF0100F08BF20ED5D
:10021000108A20E9F04F106009B44FF0500080F3CD
:100220001188BFF34F8FBFF36F8F08F04DF84FF079
:10023000000080F3118809BC19680868B0E8F04F25
:100240001EF0100F08BFB0EC108A80F30988BFF3CE
:100250006F8F704724030020EFF305807047000084
:100260000648804706480047FEE7FEE7FEE7FEE750
:10027000FEE7FEE7FEE7FEE7FEE7FEE7C55F0008F4
:10028000890100082DE9F05F0546002092469B4653
:1002900088460646814640241BE02846414647469C
:1002A000224600F0E5F953465A46C01A914110D350
:1002B00011461846224600F0CCF92D1A67EB0108CA
:1002C0004F4622460120002100F0C3F917EB000938
:1002D0004E41201EA4F10104DFDC484631462A4687
:1002E0004346BDE8F09F40EA01039B0703D009E0C5
:1002F00008C9121F08C0042AFAD203E011F8013B12
:1003000000F8013B521EF9D27047D2B201E000F86A
:10031000012B491EFBD270470022F6E710B51346A9
:100320000A4604461946FFF7F0FF204610BD30B5D7
:1003300004460020034600E05B1C934203D2E05CCD
:10034000CD5C401BF8D030BD2DE9FE4F804681EAE0
:100350000300C00F0C46009021F0004123F000453F
:10036000B8EB0200A94105D24046214690461C4602
:100370000B46024623F00040104347D0270DC7F339
:100380000A00C3F30A510290401A019040286BDA28
:10039000C3F3130040F4801B0098924620B1002361
:1003A000D2EB030A63EB0B0B01985946C0F14002F4
:1003B000504600F04EF906460D4650465946019A01
:1003C00000F066F910EB08006141002487EA115241
:1003D00084EAE7731A4340D0009A62B3019A012A73
:1003E0004FEA075215DC001B61EB02014FF000429F
:1003F00002EA0752CDE90042001C41F58011324665
:100400002B4600F09DF903B0BDE8F08F4046214631
:10041000F9E7001B61EB0201001C41F58013001895
:100420005B412018A2F5001747EB030140EAD570A5
:10043000B6196D4111E06D084FEA360645EAC07500
:100440004FEA0752001B61EB0201001C41F58011CD
:1004500049084FEA30000019514132462B4603B09B
:10046000BDE8F04F00F05DB9009801224000002384
:10047000D0EB020263EBE073009821464FEAE07490
:10048000B8EB000061EB0401E9E783F000435BE7B0
:1004900081F0004158E72DE9FE4F81EA030404F0A2
:1004A000004421F0004100944FF0000B23F0004382
:1004B00050EA01045ED052EA03045BD0C3F30A544D
:1004C000C1F30A552C44A4F2F3340194A0FB025466
:1004D000C1F3130141F48011C3F3130343F48013F8
:1004E00001FB024400FB034E840A970A44EA81544C
:1004F00047EA8357A4FB076802958D0A05FB078529
:100500004FEA932C04FB0C542705029D4FEA065832
:1005100047EA1637B5EB08056EEB070C870E920E0F
:1005200047EA811742EA8312A7FB0201B6EB0B01EF
:1005300064EB00042B0D43EA0C335E1844EB1C50B3
:10054000DA465146E7FB0201C5F313044FEA0B33C9
:1005500043EA14534FEA0432019C43EA0603A4F130
:100560000C040294009CCDE900B400F0E9F803B05B
:10057000BDE8F08F00200146F9E70EB5C10F80EA13
:10058000E0700844CA07002140F233438DE80E00B2
:100590000A460B4600F0D4F803B000BD0EB540F299
:1005A000334102910021CDE900110A460B4600F0CB
:1005B000C7F803B000BD70B5C1F30A5201F00045A1
:1005C0000024C1F3130140F2FF3341F480119A4239
:1005D00001DA002070BD40F233439A42A2F2334266
:1005E00003DC524200F044F800E090402C43F1D08C
:1005F000404270BD00F0004230F000400AD0C10D12
:1006000001F56071C0F3160042EA0151C2084007CB
:100610001143704700200146704701F0004330B499
:1006200021F0004150EA010206D00A0DA2F56072E5
:10063000C1F31301002A02DC30BC00207047440FD4
:1006400044EAC104C100E01830BC00EBC25000F025
:1006500031B8202A04DB203A00FA02F1002070476A
:100660009140C2F1200320FA03F3194390407047F0
:10067000202A04DB203A21FA02F00021704721FAF7
:1006800002F3D040C2F1200291400843194670475E
:10069000202A06DBCB17203A41FA02F043EAE07346
:1006A00006E041FA02F3D040C2F120029140084333
:1006B000194670470029A8BF7047401C490008BF71
:1006C00020F00100704710B4B0FA80FC00FA0CF082
:1006D00050EA010404BF10BC704749B1CCF12004BA
:1006E00021FA04F411FA0CF118BF01212143084347
:1006F000A3EB0C01CB1D4FEA00614FEA102042BF73
:10070000002010BC704700EBC35010440029A4BF68
:1007100010BC7047401C490008BF20F0010010BC0D
:10072000704710B5141E73F1000408DA401C41F143
:10073000000192185B411A4301D120F0010010BD65
:100740002DE9F04D92469B4611B1B1FA81F202E0DB
:10075000B0FA80F220329046FFF77BFF04460F4646
:1007600040EA0A0041EA0B0153465A46084313D0B7
:10077000114653EA010019D0C8F140025046FFF774
:1007800077FF05460E46504659464246FFF761FF41
:10079000084305D0012004E020463946BDE8F08D2D
:1007A0000020054346EAE0762C4337430A98630568
:1007B000E40AA0EB08000022FD0A44EA47540A308C
:1007C00002D500200146E9E7010510196941DDE97C
:1007D000084500196941BDE8F04DA2E7064C074DF8
:1007E00006E0E06840F0010394E807009847103401
:1007F000AC42F6D3FFF7CCFCB48B0008D48B0008D6
:1008000070B58C1810F8015B15F0070301D110F8D2
:10081000013B2A1106D110F8012B03E010F8016BFF
:1008200001F8016B5B1EF9D12B0705D40023521E82
:100830000DD401F8013BFAE710F8013BCB1A921CEA
:1008400003E013F8015B01F8015B521EF9D5A142E8
:10085000D8D3002070BD000055494A6822F44032C8
:100860004A604A6843681A434A600268526822F440
:10087000807203685A6002685368026943EA022280
:1008800003685A600268526822F0407203685A6036
:100890000268526883681A4303685A600268926863
:1008A00022F4006203689A6002689268C3681A437F
:1008B00003689A603F4B826A9A4218D00268926835
:1008C00022F0706203689A6002689268836A1A4331
:1008D00003689A600268926822F0405203689A6046
:1008E00002689268C36A1A4303689A600BE0026860
:1008F000926822F0706203689A600268926822F03F
:10090000405203689A600268926822F0020203680B
:100910009A6002689368027E43EA420203689A6022
:100920002022125CA2B10268526842F4006203689D
:100930005A600268526822F4604203685A60026892
:100940005368426A521E43EA423203685A6005E025
:100950000268526822F4006203685A600268D26A30
:1009600022F470020368DA620268D36A828B521E34
:1009700043EA02520368DA620268926822F4007263
:1009800003689A600268936890F8302043EA422234
:1009900003689A600268926822F4806203689A6031
:1009A00002689368426943EA822203689A6070474A
:1009B000002301400100000F0178054A11704178C1
:1009C000517081789170C178D1700179117170473F
:1009D000EA06002000BFFEE710B5024801F0F2FA77
:1009E00010BD0000D403002010B5024801F0EAFA5F
:1009F00010BD0000D403002010B5024801F0E2FA57
:100A000010BD0000FC03002010B5024801F0DAFA26
:100A100010BD0000FC0300202DE9F04107460C4604
:100A200015461E46380A0A4908704F70200A887019
:100A3000CC70280A08714D71300A8871CE71082374
:100A40000A469901034800F03FF8BDE8F081000034
:100A50007C000020D4030020F0B58BB007460C4684
:100A600015461E4604F0020080B1E8040190E8003B
:100A700004F0030140EA41000290F0040390F0000A
:100A800004F0030140EA4100049009E0680101908C
:100A9000A007400F029070010390A007400F049040
:100AA000E0100690C4F3800005900120099000201A
:100AB0000790012008900E200A9001A9384601F005
:100AC00031F90BB0F0BD0000F8B506460C461746EC
:100AD0001D46094804600020074948608860C860D6
:100AE000084605616B463A46304601F06FF808B19A
:100AF0000020F8BD0120FCE70408002010B50446E2
:100B0000207920B1012808D0022828D10CE000214A
:100B1000616161626163616422E0C8224FF4FA514D
:100B2000204600F0CBFB1BE0C8224FF4FA512046D0
:100B300000F0C4FB0521606990FBF1F161610521C2
:100B4000606A90FBF1F161620521606B90FBF1F14D
:100B500061630521606C90FBF1F1616400E000BF0E
:100B600000BF10BD70B50546002406F0E5F9286009
:100B700000BF17E004EB84010C4B03EB810204EB94
:100B8000C40305F1480101EBC300002102F0DEFCC3
:100B9000204606F0C3F905F1080101EB04110860D5
:100BA000601CC4B2042CE5DB70BD0000780200209C
:100BB00010B50446204600F00AF8204600F029F857
:100BC0002046FFF79BFF204600F033F810BD016878
:100BD000C97A022911D10168897A022902D100213A
:100BE000017115E00168B1F90810322902DD022116
:100BF00001710DE0012101710AE00168B1F90810ED
:100C000011F1320F02DA0221017101E001210171BB
:100C100070474179027991420AD04179022907D17E
:100C20000179012904D10022426142624263426497
:100C3000704770B50546002432E005F1080101EB6C
:100C4000041191ED031AB8EEC11AF0EE410A05F154
:100C5000080101EB04110968B1F9061001EE101A40
:100C6000B8EEC11AB0EE410A04EBC40205F1480126
:100C700001EBC20003F0D2FF04EBC40105F1480010
:100C800000EBC10090ED080ABDEEC00A10EE100A9C
:100C900001B205F1080000EB04108180601CC4B2B1
:100CA000042CCADB70BD000008B507F06DFD009094
:100CB00015E001210A4801F0E5FD0A48FFF778FF39
:100CC000084CB4F93C30B4F92C20B4F91C10B4F938
:100CD0000C00FFF7A1FE0121684607F087F9E8E75D
:100CE000000C02409C00002010B5044660790428E6
:100CF00002D1204600F010F910BD10B5044606F0F0
:100D00001BF920602146002000F0A2F810BD10B5AC
:100D10000446204600F007F8204600F021F820465F
:100D2000FFF7E2FF10BD0168C97A022915D10168F9
:100D3000897A032902D10121417105E00168897A8C
:100D4000012901D1022141710168B1F9081011F1A5
:100D5000640F04DA0421417101E0032141717047FD
:100D600010B50446A079617988425AD0A07901284B
:100D70002BD16079022828D1207909281FD2DFE8F9
:100D800000F0051E0A1E0F1E141E19002146012028
:100D900000F05EF818E02146032000F059F813E057
:100DA0002146052000F054F80EE02146072000F00F
:100DB0004FF809E02146002000F04AF804E02146FF
:100DC000002000F045F800BF29E0A079022826D1D4
:100DD0006079012823D12079012806D0032809D081
:100DE00005280CD0072814D10EE02146022000F07F
:100DF0002FF813E02146042000F02AF80EE02146E7
:100E0000062000F025F809E02146082000F020F82F
:100E100004E02146002000F01BF800BF00BF60790D
:100E2000A07110BD08B507F0AFFC00900AE00421E6
:100E3000054801F027FD0548FFF769FF01216846D5
:100E400007F0D4F8F3E70000000C0240C8020020CD
:100E500070B504460D46092C58D2DFE804F0051E93
:100E6000242A363C4249500000224FF48041294850
:100E700001F012FD00224FF48051264801F00CFDD4
:100E800000224FF40061234801F006FD00224FF4D8
:100E90000051204801F000FD39E0012211031D48F6
:100EA00001F0FAFC33E00122D1021A4801F0F4FC0F
:100EB0002DE001229103174801F0EEFC00224FF4CF
:100EC0008051144801F0E8FC21E00122510311484F
:100ED00001F0E2FC1BE0012211030E4801F0DCFCF2
:100EE00015E000224FF400610A4801F0D5FC0EE045
:100EF00000224FF48051074801F0CEFC07E00022A9
:100F00004FF40051034801F0C7FC00E000BF00BFF0
:100F10002C7170BD0010024010B5044620790928DC
:100F200070D2DFE800F005060D1E2F4A708B9C0082
:100F30009DE000224FF48051504801F0ADFC96E056
:100F400000224FF400614D4801F0A6FC40F226203B
:100F500007F01AF800224FF48051484801F09CFC39
:100F600085E000224FF48041444801F095FC40F2B6
:100F7000262007F009F800224FF400613F4801F0F5
:100F80008BFC74E000224FF400513C4801F084FCDB
:100F90004FF4487006F0F8FF00224FF480413748C4
:100FA00001F07AFC40F2262006F0EEFF00224FF41A
:100FB0000061324801F070FC59E000224FF480518A
:100FC0002E4801F069FC40F2262006F0DDFF0022E9
:100FD0004FF40051294801F05FFC4FF4487006F0CF
:100FE000D3FF00224FF48041244801F055FC40F229
:100FF000262006F0C9FF00224FF400611F4801F0CF
:101000004BFC34E032E000224FF480511B4801F0E9
:1010100043FC40F2262006F0B7FF00224FF40051B7
:10102000164801F039FC4FF4487006F0ADFF00227D
:101030004FF48041114801F02FFC18E000224FF4DA
:1010400000510E4801F028FC4FF4487006F09CFF58
:1010500000224FF48041094801F01EFC00BF00222D
:101060004FF48041054801F017FC00BF00BF00BFEE
:1010700021460020FFF7ECFE10BD000000100240EA
:1010800070477047704770477047704770477047A8
:10109000A0F2012232B1012A46D0022A7ED0032AD0
:1010A0007DD1C5E0844A1288834BB3F90230D21A4D
:1010B000B2F5805F05DD804AD268521E7E4BDA6051
:1010C0000DE07D4A12887C4BB3F90230D21A12F53A
:1010D000805F04DA784AD268521C774BDA60764A2D
:1010E000128812B2744B5A804A780B7842EA032273
:1010F000714B1A80CA788B7842EA032212B26E4B87
:10110000DA804A790B7942EA032212B26A4B1A81D9
:101110008A799A721A46D268C2EB42321B881A4404
:1011200012B2654B9A80C5E0634A138AB2F9122065
:101130009A1AB2F5805F05DD5F4AD269521E5E4B96
:10114000DA610CE05C4A138AB2F912209A1A12F59D
:10115000805F04DA584AD269521C574BDA61564A0A
:10116000128A13B2544A53824A780B7842EA032215
:10117000514B1A82CA788B7842EA032213B24E4A44
:10118000D3824A790B7942EA032213B24A4A138383
:101190008B799376D269C2EB423201E007E088E0B6
:1011A000454B1B8A1A4413B2434A938282E0424A57
:1011B000138CB2F922209A1AB2F5805F05DD3E4AFF
:1011C000D26A521E3C4BDA620CE03B4A138CB2F9F5
:1011D00022209A1A12F5805F04DA374AD26A521C2A
:1011E000354BDA62344A128C13B2334A53844A784C
:1011F0000B7842EA0322304B1A84CA788B7842EA91
:10120000032213B22C4AD3844A790B7942EA03228F
:1012100013B2294A13858B7982F82A30D26AC2EB3D
:101220004232254B1B8C1A4413B2234A938441E06B
:10123000214A138EB2F932209A1AB2F5805F05DD89
:101240001D4AD26B521E1C4BDA630CE01A4A138EF5
:10125000B2F932209A1A12F5805F04DA164AD26B7C
:10126000521C154BDA63144A128E13B2124A53867B
:101270004A780B7842EA03220F4B1A86CA788B7899
:1012800042EA032213B20C4AD3864A790B7942EA26
:10129000032213B2084A13878B7982F83A30D26B53
:1012A000C2EB4232044B1B8E1A4413B2024A93869D
:1012B00000E000BF00BF704728070020F0B52DED0B
:1012C000088B81B004460D4616462168B1F904002A
:1012D000142105F035FE07466B424FF42072694930
:1012E000009505F03DFEC4F8B0012168B1F9060093
:1012F000142105F025FE07466B424FF4207251423F
:10130000009505F02DFEC4F8B4012168B1F9000084
:10131000322105F015FE0746734240F26222514227
:10132000009605F01DFE00EB80004000C4F8B801F7
:10133000D4F8B00148B10422D4F8BC11D4F8B001FB
:1013400003F08AFDC4F8BC0102E00020C4F8BC012F
:10135000D4F8B40148B10422D4F8C011D4F8B401CF
:1013600003F07AFDC4F8C00102E00020C4F8C00117
:1013700004F5DC742068E060E068FFF7FEF841ECFB
:10138000190BA16849426268A4F5DC74881AFFF75A
:10139000F4F841EC1B0B9FED3C0B53EC102BFFF7CB
:1013A0007AF841EC1A0B53EC192BFEF7CDFF41EC08
:1013B000180BFFF700F96061D4F8C401FFF7DDF8FE
:1013C00041EC190BD4F8BC21D4F8C011881AFFF7EE
:1013D000D4F841EC1B0B9FED2C0B53EC102BFFF7BB
:1013E0005AF841EC1A0B53EC192BFEF7ADFF41EC08
:1013F000180BFFF7E0F86062D4F8C401FFF7BDF8FE
:1014000041EC190BD4F8C0114942D4F8BC2188181A
:10141000FFF7B3F841EC1B0B9FED1B0B53EC102BAC
:10142000FFF739F841EC1A0B53EC192BFEF78CFF40
:1014300041EC180BFFF7BFF86063D4F8C401FFF765
:101440009CF841EC190BD4F8BC21D4F8C0118818D1
:10145000FFF793F841EC1B0B9FED0B0B53EC102B9C
:10146000FFF719F841EC1A0B53EC192BFEF76CFF40
:1014700041EC180BFFF79FF8606401B0BDEC088BDE
:10148000F0BD000081FDFFFF39B4C876BE9FE63F86
:1014900072B600BFFEE770B52DED028B044694F8DE
:1014A000300048B90021A17161710020207140F223
:1014B0004C416161E16004E00521204604F0CDFB70
:1014C00000BF00BFE068FFF769F841EC180BFFF7B9
:1014D00072F8054604F014FCA0606069FFF75EF83E
:1014E00041EC180BFFF767F8054604F009FC206192
:1014F000BDEC028B70BD10B5044605F01DFD2060EB
:1015000005F016FD606310BD10B50446204600F0DE
:101510000AF8204600F047F82046FFF7BCFF2046B7
:1015200000F094F810BD0168C97A032917D1016849
:10153000897A012903D1052180F8301032E0016851
:10154000897A032903D1042180F830102AE0016848
:10155000897A022926D1032180F8301022E001681F
:10156000C97A012917D10168897A012903D1082193
:1015700080F8301016E00168897A032903D1072129
:1015800080F830100EE00168897A02290AD106211C
:1015900080F8301006E00168C97A022902D10021E2
:1015A00080F83010704790F8311090F83020914258
:1015B00046D090F83010032907D101224271012151
:1015C000017182694261C2603AE090F830100429EA
:1015D00007D10122427101210171C2694261C260D9
:1015E0002EE090F83010052907D101224271012127
:1015F0000171026A4261C26022E090F8301006294F
:1016000007D10122427101210171426A4261C26027
:1016100016E090F83010072907D10122427101210C
:101620000171826A4261C2600AE090F830100829B4
:1016300006D10122427101210171C26A4261C26078
:1016400090F8301080F831107047000010B5044653
:10165000607940B11848A16802F0D8FA16482169AB
:1016600002F0D8FA0DE040F24C41A16021614FF444
:101670007A71114802F0CAFA4FF47A710E4802F0FA
:10168000C9FA207990B12068B0F90800B0F5167F4A
:1016900006DD00224FF40041084801F0FDF80AE0A1
:1016A0000122D103054801F0F7F804E00122D1033B
:1016B000024801F0F1F810BD000C0040001002409B
:1016C00008B507F061F800900AE00221054801F032
:1016D000D9F80548FFF718FF0121684606F086FC97
:1016E000F3E70000000C0240D002002038B50246AB
:1016F0000020009000BF92F83C00012801D1022098
:1017000038BD012082F83C0000BF0868092816D9BE
:101710001068C0680C780A3C04EB44050724AC4010
:10172000A0431468E0600C780A3C04EB4404886829
:10173000A0401468E46820431468E06013E0106877
:1017400000690C7804EB44050724AC40A0431468FE
:1017500020610C7804EB44048868A0401468246974
:101760002043146820614868072817D21068406B2E
:101770000C79641E04EB84051F24AC40A04314685C
:101780006063088880B20C79641E04EB8404A04076
:101790001468646B20431468606331E048680D2866
:1017A00017D21068006B0C79E41F04EB84051F242A
:1017B000AC40A04314682063088880B20C79E41F11
:1017C00004EB8404A0401468246B20431468206355
:1017D00016E01068C06A0C790D3C04EB84051F24E8
:1017E000AC40A0431468E062088880B20C790D3CDC
:1017F00004EB8404A0401468E46A20431468E062A7
:10180000194B1A4C1068A04206D10868122803D15F
:10181000586840F480005860144C1068A0421CD1F5
:101820000868102802D00868112816D1586840F4BA
:1018300000005860086810280FD10D4800680D4C52
:10184000B0FBF4F000EB80004000009002E0009854
:10185000401E009000980028F9D100BF002082F8B7
:101860003C0000BF00BF4BE70023014000200140C7
:101870001C00002040420F0001460868C06C704701
:1018800070B5044600250CB9012070BD1549A06A49
:10189000884200D000BF206C30B9204600F024F808
:1018A0000020606484F83C00206C00F0100088B9CF
:1018B000206C20F4885040F0020020642046FEF79F
:1018C000CBFF00206064206C20F0020040F001009B
:1018D000206400E0012500BF002084F83C0000BF28
:1018E0002846D2E70100000F10B586B00446142147
:1018F00001A8FEF711FD1949206888422BD100BFCD
:10190000002000901648006840F480701449086078
:101910000846006800F48070009000BF00BF00BF60
:10192000002000900E481438006840F004000C4974
:10193000143908600846006800F00400009000BFF9
:1019400000BF08200190032002900020039001A90D
:10195000044800F09DFE06B010BD000000200140CC
:10196000443802400008024070B504460D46002687
:101970002068806800F48060B0F5806F11D1206825
:10198000806800F48070B0F5807F0AD1206C40F050
:101990002000206400BF002084F83C0000BF01202C
:1019A00070BD00F07FFF064618E0681CB0B125B19D
:1019B00000F078FF801BA84210D92068006800F072
:1019C000020002280AD0206C40F00400206400BF0E
:1019D000002084F83C0000BF0320E1E72068006895
:1019E00000F002000228E0D16FF0120021680860C8
:1019F000206C40F4007020642068806800F0405043
:101A0000B8B9207EA8B92068C06A00F4700020B17F
:101A10002068806800F4806058B9206C20F48070E1
:101A20002064206C00F4805018B9206C40F0010054
:101A300020640020B4E7000008B5014600200090B3
:101A400000BF91F83C00012801D1022008BD01200F
:101A500081F83C0000BF0868806800F00100A0B970
:101A60000868806840F001000B6898603F48006893
:101A70003F4BB0FBF3F000EB4000009002E0009819
:101A8000401E009000980028F9D10868806800F096
:101A90000100002860D0086C40F20163984340F4D4
:101AA000807008640868406800F4806028B1086CA1
:101AB00020F4005040F480500864086C00F480501A
:101AC000B0F5805F04D1486C20F00600486401E066
:101AD0000020486400BF002081F83C0000BF254A78
:101AE0006FF022000B681860506800F01F0018BBF0
:101AF000214B0868984213D0204B0868984204D1C3
:101B0000101D006800F01F0050B11D4B086898427E
:101B10002AD11848001D006800F01F00102823D2A9
:101B20000868806800F04050F0B90868806840F0AC
:101B300080400B68986017E00F4B0868984213D1FB
:101B40000868806800F0405070B90868806840F00C
:101B500080400B68986007E0086C40F01000086453
:101B6000486C40F00100486400206FE71C00002032
:101B700040420F00002301400020014000210140AD
:101B800000220140014600BF91F83C00012801D12C
:101B900002207047012081F83C0000BF086880687F
:101BA00020F001000A6890600868806800F0010079
:101BB00028B9086C20F4885040F00100086400BF88
:101BC000002081F83C0000BF00BFE2E7F0B504460A
:101BD0000D461E4694F8207020688368A86800B9F6
:101BE00000E000BF012F01D0022F7CD103F0806004
:101BF00030B903F0006018B903F08050002873D0AA
:101C0000C3F30161022905D9606A40F400006062F3
:101C10000120F0BD012088403060A86860B9B5F8A7
:101C200000C0E86840EA4C5C206800F5C07000EB3A
:101C30000110C0F800C00FE0D5E901C040EACC00B7
:101C4000D5F80CC040EA0C00D4F800C00CF5C07CFC
:101C50000CEB011CCCF80000D5F810C0206800F592
:101C6000C07000EB0110C0F804C0287D01280ED11F
:101C7000206800F5C07000EB0110406840F4807CE3
:101C8000206800F5C07000EB0110C0F804C0D079E6
:101C9000000692F806C040EA0C4092F805C040EAFF
:101CA0000C2C10794CEA000C206800F5C07000EB99
:101CB0000110C0F80CC0D078000692F802C040EACB
:101CC0000C4092F801C040EA0C2092F800C040EAB3
:101CD0000C00D4F800C00CF5C07C0CEB011CCCF857
:101CE0000800206801E016E00FE000F5C07000EB8E
:101CF0000110006840F0010C206800F5C07000EB96
:101D00000110C0F800C0002083E7606A40F40010B2
:101D1000606201207DE7606A40F4802060620120FB
:101D200077E70000F0B504460A46216894F8205091
:101D3000012D01D0022D7ED1424901F500710868C4
:101D400040F001000860086820F47C5008600868D2
:101D5000566A40EA06200860107D00F01F06012048
:101D600000FA06F3C8699843C861A1F50071D0690B
:101D7000C8B9D1F80C029843C1F80C02908880B21F
:101D8000968940EA064601F51070576940F83760B9
:101D9000108880B2168940EA064601F5107057692E
:101DA00000EBC7004660D069012819D1D1F80C02B8
:101DB0001843C1F80C02908880B2168840EA0646A3
:101DC00001F51070576940F83760908980B2168924
:101DD00040EA064601F51070576900EBC7004660FF
:101DE000906928B9D1F804029843C1F8040204E0CC
:101DF000D1F804021843C1F80402106928B9D1F8D7
:101E000014029843C1F8140204E0D1F814021843F4
:101E1000C1F81402106A012804D1D1F81C02184339
:101E2000C1F81C02D1F8000220F00100C1F8000244
:101E30000020F0BDFFE7606A40F48020606201206E
:101E4000F7E7000000640040704770B5044694F85E
:101E50002050012D01D0022D7DD151B92068C068DC
:101E600000F0030080B9606A40F400106062012055
:101E700070BD2068006900F0030028B9606A40F472
:101E8000001060620120F3E7206800F5D87000EBD5
:101E90000110006800F004009060906840B920686C
:101EA00000F5D87000EB01100068400D106007E0ED
:101EB000206800F5D87000EB01100068C008506081
:101EC000206800F5D87000EB0110006800F00200F7
:101ED000D060206800F5D87000EB0110406800F079
:101EE0000F001061206800F5D87000EB0110406809
:101EF00000F47F40000A9061206800F5D87000EB84
:101F000001104068000C5061206800F5D87000EBAB
:101F1000011080681870206800F5D87000EB01107F
:101F2000806800F47F40000A5870206800F5D8707F
:101F300000EB0110806800F47F00000C98702068AE
:101F400000F5D87000EB01108068000ED870206892
:101F500000F5D87000E02FE000EB0110C0681871A8
:101F6000206800F5D87000EB0110C06800F47F40D5
:101F7000000A5871206800F5D87000EB0110C068A5
:101F800000F47F00000C9871206800F5D87000EB19
:101F90000110C068000ED87131B92068C06840F0E7
:101FA00020002668F06005E02068006940F020000D
:101FB0002668306100205BE7606A40F48020606240
:101FC000012055E72DE9F05F0446002520684669A9
:101FD0002068D0F80490206887682068D0F80CA0AA
:101FE0002068D0F810B02068D0F8188006F0010002
:101FF000002855D007F00100C0B101202168886099
:1020000007F0020018B1204600F011FB0EE007F0C7
:10201000040010B145F4006508E007F0080010B1B5
:1020200045F4805502E0204600F000FB07F4807084
:10203000C8B14FF480702168886007F4007018B14F
:10204000204600F0F6FA0EE007F4806010B145F487
:10205000005508E007F4006010B145F4804502E047
:10206000204600F0E5FA07F48030C8B14FF4803024
:102070002168886007F4003018B1204600F0DBFAD0
:102080000EE007F4802010B145F4004508E007F4A5
:10209000002010B145F4803502E0204600F0CAFA75
:1020A00006F0080038B10AF0100020B145F40075C0
:1020B00010202168C86006F0040040B10AF0080052
:1020C00028B108202168C860204600F01FFA06F0F9
:1020D000020038B12068C06800F0030010B120464B
:1020E00000F016FA06F0400038B10BF0100020B1F5
:1020F00045F4806510202168086106F0200040B199
:102100000BF0080028B1082021680861204600F083
:102110002DFA06F0100038B12068006900F00300C5
:1021200010B1204600F024FA06F4003040B109F066
:10213000100028B1102021684860204600F046FABF
:1021400006F4803040B109F0080028B10820216869
:102150004860204600F070FA06F4004088B309F0A9
:10216000040078B306F4807020B108F0010008B1D3
:1021700045F0010506F4007020B108F0020008B136
:1021800045F0020506F4806020B108F0040008B1B3
:1021900045F0040506F40060A0B108F0700088B1B5
:1021A00008F07000402817D006DC10280BD020283B
:1021B0000CD0302819D10CE0502810D0602814D150
:1021C00010E01DE019E045F008050FE045F01005AE
:1021D0000CE045F0200509E045F0400506E045F03B
:1021E000800503E045F4807500E000BF00BF206873
:1021F000806920F0700021688861042021684860AF
:102200002DB1606A284360622046FFF71DFEBDE8DD
:10221000F09F70B504460CB9012070BD94F8200001
:1022200010B9204600F0B0F82068006840F00100C6
:102230002168086000F036FB05460DE000F032FB37
:10224000401B0A2808D9606A40F40030606205200B
:1022500084F820000120E0E72068406800F00100D9
:102260000028EBD02068006820F002002168086098
:1022700000F018FB05460DE000F014FB401B0A2897
:1022800008D9606A40F400306062052084F82000BC
:102290000120C2E72068406800F002000028EBD16E
:1022A000207E012806D12068006840F08000216867
:1022B000086005E02068006820F080002168086060
:1022C000607E012806D12068006840F04000216847
:1022D000086005E02068006820F040002168086080
:1022E000A07E012806D12068006840F02000216807
:1022F000086005E02068006820F020002168086080
:10230000E07E012806D12068006820F010002168D6
:10231000086005E02068006840F01000216808604F
:10232000207F012806D12068006840F0080021685D
:10233000086005E02068006820F008002168086057
:10234000607F012806D12068006840F00400216801
:10235000086005E02068006820F00400216808603B
:10236000D4E90201084321690843616908436168AF
:10237000491E08432168C86100206062012084F87A
:102380002000002049E7000010B586B00446142163
:1023900001A8FDF7C1FF5749206888424AD1564835
:1023A0000068401C544908600846006801280FD1A5
:1023B00000BF002000905148006840F000704F4975
:1023C00008600846006800F00070009000BF00BF81
:1023D00000BF0020009049481038006840F001001C
:1023E0004649103908600846006800F00100009076
:1023F00000BF00BF4FF4C0500190022002900020A7
:102400000390032004900920059001A93C4800F0A6
:102410003FF900220521142000F03EFB142000F0BB
:102420002BFB00220521152000F036FB152000F0C3
:1024300023FB5CE033492068884258D100BF00206C
:1024400000902E48006840F080602C4908600846E3
:10245000006800F08060009000BF00BF2648006860
:10246000401C254908600846006801280FD100BFBC
:10247000002000902148006840F000701F4908606B
:102480000846006800F00070009000BF00BF00BF69
:102490000020009019481038006840F002001749E9
:1024A000103908600846006800F00200009000BF84
:1024B00000BF6020019002200290002003900320C2
:1024C00004900920059001A90F4800F0E1F80022CE
:1024D0000521402000F0E0FA402000F0CDFA002273
:1024E0000521412000F0D8FA412000F0C5FA06B0DD
:1024F00010BD0000006400400C0000204038024085
:1025000000000240006800400004024070470000E4
:1025100010B504461049206888420CD10F4BA3F136
:102520001C0200212046FFF790FC0C481C380C4987
:10253000096888470FE00B49206888420BD1074B98
:10254000A3F11C0200212046FFF77FFC03481C3842
:1025500005490968884710BD006400405008002004
:102560008C000020006800409000002070470000B0
:1025700010B504461049206888420CD10F4BA3F1D6
:102580001C0201212046FFF760FC0C481C380C4956
:10259000096888470FE00B49206888420BD1074B38
:1025A000A3F11C0201212046FFF74FFC03481C3811
:1025B00005490968884710BD006400407408002080
:1025C0008C0000200068004090000020704770B52B
:1025D000044694F82000012822D1022084F820002B
:1025E0002068006820F001002168086000F05AF9B6
:1025F00005460DE000F056F9401B0A2808D9606A2C
:1026000040F400306062052084F82000012070BD95
:102610002068406800F001000028EBD16062F6E716
:10262000606A40F4002060620120F0E77047704764
:102630007047704770477047704710B504460CB933
:10264000012010BD607920B900202071204600F0E3
:1026500005F8012060710020F3E7000008B50A4A80
:10266000016891420FD100BF00210091074909681C
:1026700041F48051054A11601146096801F4805106
:10268000009100BF00BF08BD00300240303802405A
:10269000F8B502460B460025002400200021D6E0B4
:1026A000012606FA01F51E6806EA0504AC4274D15B
:1026B0001E7906F00306012E04D01E7906F00306EB
:1026C000022E13D190684F000326BE40B0434F0046
:1026D000DE68BE4030439060506801268E40B043B3
:1026E0001E79C6F300168E40304350601E7906F006
:1026F0000306032E09D0D0684F000326BE40B04326
:102700004F009E68BE403043D0601E7906F003063D
:10271000022E13D1CF0802F1200656F827004E07EB
:10272000F70E0F26BE40B0434F07FF0E1E69BE4096
:102730003043CF0802F1200646F8270010684F000A
:102740000326BE40B0431E7906F003064F00BE408C
:10275000304310605E6806F44036002E76D000BF2D
:10276000002600963C4E366846F480463A4F3E605E
:102770003E46366806F48046009600BF00BF374EDE
:102780008F0856F827008E07370F0F26BE40B0433C
:10279000334EB24202D1002624E057E0314EB2421D
:1027A00001D101261EE0304EB24201D1022619E0CD
:1027B0002E4EB24201D1032614E02D4EB24201D179
:1027C00004260FE02B4EB24201D105260AE02A4E24
:1027D000B24201D1062605E0284EB24201D10726B9
:1027E00000E008268F073F0FBE4030431B4E8F0886
:1027F00046F82700224E3068A0435E6806F4801633
:1028000006B120431E4E3060361D3068A0435E681E
:1028100006F4001606B12043194E361D3060184EDE
:10282000361F3068A0435E6806F4003606B12043C8
:10283000134E361F3060361F3068A0435E6806F4C2
:10284000803606B120430E4E083E3060491C1029E8
:10285000FFF426AFF8BD00004438024008380140BC
:10286000000002400004024000080240000C024048
:10287000001002400014024000180240001C0240F8
:10288000083C014010B5426921EA020302EA010452
:1028900043EA0443836110BD0AB1816101E00B0486
:1028A00083617047014800687047000010000020F5
:1028B00070B504460CB9012070BD4CF6CC402168BF
:1028C000086045F2555021680860D4E9001048605E
:1028D0002168A0688860FFF7E5FF05460BE0FFF779
:1028E000E1FF401B312806D92068C06800F00300D2
:1028F00008B10320E0E72068C06800F0030000286A
:10290000EDD14AF6AA20216808600020D4E70146EC
:102910004AF6AA200A681060002070470348006841
:1029200003490978084401490860704710000020F5
:102930001800002010B50D48006840F400700B49E5
:1029400008600846006840F4806008600846006837
:1029500040F480700860032000F0DCF80F2000F0E5
:1029600007F800F05FF8002010BD0000003C0240B6
:102970002DE9F04188B004460027B84600BF00208A
:1029800001902348006840F0100021490860084683
:10299000006800F01000019000BF00BF02A903A86A
:1029A00000F08EF9069F1FB900F0B2F9054602E06B
:1029B00000F0AEF945001748B5FBF0F0A0F10108B2
:1029C00015481649086040F2E7311448C160C0F864
:1029D0000480002101618160816100F051FC0646A4
:1029E00096B90E4800F080FC06466EB9362000F01D
:1029F00043F8102C07D200222146362000F04CF874
:102A00000748046000E00126304608B0BDE8F081C8
:102A10004038024040420F00001000408C0500206A
:102A20001400002008B500BF002000901148006885
:102A300040F480400F4908600846006800F4804078
:102A4000009000BF00BF00BF00200090081F00687A
:102A500040F08050091F08600846006800F0805070
:102A6000009000BF00BF00220F21901E00F014F85C
:102A700008BD00004438024001460846002809DB32
:102A800000F01F0301229A4043099B0003F1E02359
:102A9000C3F8002100BF70472DE9F05F80460D4666
:102AA0001646002703F0CAFF074639462A46334632
:102AB00001F00700C0F1070ABAF1040F02D94FF084
:102AC000040A01E0C0F1070AD14600F1040ABAF194
:102AD000070F02D24FF0000A01E0A0F1030AD4462A
:102AE0004FF0010A0AFA09FAAAF1010A0AEA020AEF
:102AF0000AFA0CFA4FF0010B0BFA0CFBABF1010BCD
:102B00000BEA030B4AEA0B042146404603F0B2FFEE
:102B1000BDE8F09F00BF00F00702064B19684FF6B2
:102B2000FF031940044B0B4343EA0221014B196098
:102B300000BF70470CED00E00000FA0570B50446D8
:102B40000D460CB9012070BD5848006800F0070020
:102B5000A84209D255490D700846006800F00700E8
:102B6000A84201D00120EEE7207800F00200022800
:102B70001DD1207800F00400042805D14C480068DD
:102B800040F4E0504A490860207800F00800082826
:102B900005D14748006840F4604045490860444812
:102BA000006820F0F000A1680843414908602078DF
:102BB00000F00100A8B36068012807D13C4808383C
:102BC0000068C0F34040B8B90120BCE76068022843
:102BD00002D06068032807D1354808380068C0F380
:102BE000406048B90120AEE7314808380068C0F3BA
:102BF000400008B90120A6E72D48006820F0030036
:102C0000616808432A490860FFF74CFE064609E060
:102C1000FFF748FE801B41F28831884202D9032029
:102C200091E707E02248006800F00C006168B0EB13
:102C3000810FEDD11D48006800F00700A84209D9B6
:102C40001A490D700846006800F00700A84201D03C
:102C5000012078E7207800F00400042807D1144808
:102C6000006820F4E050E1680843114908602078CA
:102C700000F00800082808D10D48006820F46040E2
:102C8000216940EAC1000A49086000F051F808498A
:102C90000968C1F30311074A515CC840064908603E
:102CA00006480068FFF764FE00204CE7003C024045
:102CB00008380240E88A00081C00002014000020A8
:102CC0000F2202600D4A126802F0030242600B4AB2
:102CD000126802F0F0028260084A126802F4E052C0
:102CE000C260064A126802F46042D2080261044AD5
:102CF000126802F007020A607047000008380240BC
:102D0000003C024001480068704700001C000020A1
:102D100000B5FFF7F7FF04490968C1F38221034AB0
:102D2000515CC84000BD000008380240F88A000825
:102D30002DE9F047002400250026A146254800681B
:102D400000F00C0020B1042805D008283AD105E095
:102D5000DFF8849039E0DFF8849036E01D48001FEA
:102D6000006800F03F041B48001F006800F480006A
:102D700078B11A481749091F0968C1F38811A0FBE7
:102D800001700146224600233846FDF77BFA0546CE
:102D90000EE011480F49091F0968C1F38811A0FB13
:102DA00001700146224600233846FDF76BFA0546BE
:102DB0000848001F0068C0F30140401C4600B5FBF6
:102DC000F6F902E0DFF8109000BF00BF4846BDE80A
:102DD000F0870000083802400024F40000127A0056
:102DE000F8B504460CB90120F8BD207800F00100C8
:102DF000002874D0F948006800F00C0004280DD0B9
:102E0000F648006800F00C00082813D1F348001FB2
:102E1000006800F48000B0F5800F0BD1EF4808384F
:102E20000068C0F34040002859D06068002856D19F
:102E30000120D9E700BF6068B0F5803F08D1E748BE
:102E40000838006840F48030E449083908601EE022
:102E50006068B0F5A02F0DD1E0480838006840F454
:102E60008020DE49083908600846006840F4803058
:102E700008600CE0D9480838006820F48030D74951
:102E8000083908600846006820F48020086000BF08
:102E9000606890B1FFF706FD054606E0FFF702FD0A
:102EA000401B642801D903209EE7CC4808380068FD
:102EB000C0F340400028F1D011E0FFF7F3FC0546D5
:102EC00006E0FFF7EFFC401B642801D903208BE7E5
:102ED000C24808380068C0F340400028F1D120788B
:102EE00000F0020002285FD1BC48006800F00C002E
:102EF00058B1BA48006800F00C0008281CD1B74847
:102F0000001F006800F48000B0B9B44808380068B9
:102F1000C0F3400020B1E068012801D0012063E740
:102F2000AE480838006820F0F800216940EAC10086
:102F3000AA490839086037E0E06800B30120A849D1
:102F40000860FFF7AFFC054606E0FFF7ABFC401B4F
:102F5000022801D9032047E7A04808380068C0F3D9
:102F600040000028F1D09D480838006820F0F800A3
:102F7000216940EAC10099490839086014E000203D
:102F800097490860FFF78EFC054606E0FFF78AFCCC
:102F9000401B022801D9032026E790480838006822
:102FA000C0F340000028F1D1207800F00800082884
:102FB0002CD16069A8B101208A490860FFF772FC32
:102FC000054606E0FFF76EFC401B022801D90320EE
:102FD0000AE782486C300068C0F340000028F1D056
:102FE00014E000207F490860FFF75CFC054606E01E
:102FF000FFF758FC401B022801D90320F4E677486C
:103000006C300068C0F340000028F1D1207800F057
:103010000400042870D1002770483830006800F0A0
:10302000805090B900BF002000906C483830006894
:1030300040F080506949383108600846006800F067
:103040008050009000BF00BF01276748006800F46F
:103050008070B0B96448006840F4807062490860CC
:10306000FFF720FC054606E0FFF71CFC401B02288A
:1030700001D90320B8E65C48006800F4807000289D
:10308000F2D000BFA068012808D154486830006819
:1030900040F001005149683108601DE0A068052832
:1030A0000DD14E486830006840F004004B4968314B
:1030B00008600846006840F0010008600CE04748DE
:1030C0006830006820F00100444968310860084613
:1030D000006820F00400086000BFA068A8B1FFF7F6
:1030E000E1FB054609E0FFF7DDFB401B41F28831BB
:1030F000884202D9032077E626E038486830006825
:10310000C0F340000028EED013E0FFF7CBFB0546EC
:1031100008E0FFF7C7FB401B41F28831884201D924
:10312000032061E62D4868300068C0F340000028A5
:10313000EFD1012F07D129483830006820F08050A6
:1031400026493831086000BFA069002845D02348CF
:10315000006800F00C0008285DD0A069022845D165
:1031600000201F490866FFF79DFB054606E0FFF7B4
:1031700099FB401B022801D9032035E6174808387F
:103180000068C0F340600028F1D1D4E9070108438A
:10319000616A40EA81110122A06AC2EB500041EA53
:1031A00000412C20005D41EA00600C49091F0860C5
:1031B00001200B490866FFF775FB054606E0FFF79F
:1031C00071FB401B022801D903200DE60348083893
:1031D0000068C0F340600028F1D049E008380240A0
:1031E00000004742800E4742007000400020214905
:1031F0000866FFF757FB054606E0FFF753FB401B49
:10320000022801D90320EFE51B480068C0F34060A5
:103210000028F2D12CE0A069012800D1E4E516488D
:10322000001D0668A069012820D006F48001E0692D
:1032300081421BD106F03F01206A814216D147F638
:10324000C0703040616AB0EB811F0FD106F440318D
:103250000122A06AC2EB5000B1EB004F06D106F08C
:1032600070612C20005DB1EB006F01D00120BBE547
:103270000020B9E50000474200380240704770471F
:1032800010B504460CB9012010BD94F83D0028B9D2
:10329000002084F83C00204600F025F8022084F845
:1032A0003D00211D206803F04FF8012084F84600FE
:1032B00000BF84F83E0001213F2001554020015508
:1032C0004120015500BF00BF012084F84200432087
:1032D0000155442001554520015500BF012084F8C7
:1032E0003D000020D0E77047014691F83D000128DD
:1032F00001D001207047022081F83D000868C068B5
:1033000040F001000B68D8601A4B086898421BD047
:103310000868B0F1804F17D0174B0868984213D057
:10332000164B086898420FD0154B086898420BD08E
:10333000144B0868984207D0134B0868984203D092
:10334000124B086898420CD10868806800F00702A8
:10335000062A0CD00868006840F001000B6818606D
:1033600005E00868006840F001000B681860002064
:10337000C0E70000000001400004004000080040D9
:10338000000C0040000401400040014000180040D3
:10339000704710B5044620680069C0F34000D8B1FA
:1033A0002068C068C0F34000B0B16FF0020021682F
:1033B0000861012020772068806900F0030018B1BF
:1033C0002046FFF7E5FF05E0204600F0ADF8204677
:1033D00000F0ABF80020207720680069C0F380007F
:1033E000D8B12068C068C0F38000B0B16FF00400AD
:1033F00021680861022020772068806900F440700D
:1034000018B12046FFF7C4FF05E0204600F08CF815
:10341000204600F08AF80020207720680069C0F379
:10342000C000D8B12068C068C0F3C000B0B16FF070
:10343000080021680861042020772068C06900F036
:10344000030018B12046FFF7A3FF05E0204600F077
:103450006BF8204600F069F80020207720680069AA
:10346000C0F30010D8B12068C068C0F30010B0B13C
:103470006FF0100021680861082020772068C0697B
:1034800000F4407018B12046FFF782FF05E02046A7
:1034900000F04AF8204600F048F800202077206825
:1034A000006900F0010058B12068C06800F0010018
:1034B00030B16FF0010021680861204600F036F855
:1034C00020680069C0F3C01058B12068C068C0F31C
:1034D000C01030B16FF08000216808612046FFF70E
:1034E000CDFE20680069C0F3801058B12068C06824
:1034F000C0F3801030B16FF04000216808612046B1
:1035000000F020F820680069C0F3401058B120682E
:10351000C068C0F3401030B16FF02000216808612E
:103520002046FFF7ACFE10BD7047704710B504464B
:1035300003492068884201D1FFF7F0F910BD00006F
:1035400000100040704700BFFEE7000010B50346C2
:103550000C4603B102B910BD1C7092ED000A83ED58
:10356000010A92ED010A83ED020A92ED020A83ED4F
:10357000030A92ED030A83ED040A92ED040A83ED37
:10358000050A9FED0E0A83ED0E0A83ED0D0A83ED09
:103590000C0A9FED0A0A83ED080A83ED0B0A83EDFE
:1035A0000A0A83ED090A83ED110A83ED100A83EDFF
:1035B0000F0A184601F02AFC00BFCCE7000000000B
:1035C00008B5054909680143034A116011460968B5
:1035D0000140009100BF08BD3038024008B50549E0
:1035E00009680143034A11601146096801400091CE
:1035F00000BF08BD4038024008B5054909680143CD
:10360000034A1160114609680140009100BF08BDDE
:10361000443802404FF48011816070474FF400112C
:1036200081607047054A525C0244526922F00402EC
:10363000024B5B5C03445A6170470000A08A00089B
:10364000044A525C825822F00102024B5B5CC25079
:1036500070470000008B0008044A525C825842F414
:103660008022024B5B5CC25070470000008B000858
:10367000044A525C825842F00102024B5B5CC25029
:1036800070470000008B000802460348405C105859
:1036900000F4002070470000008B00080246034839
:1036A000405C1044406880B270470000008B000806
:1036B00002460348405C105800F0010070470000CB
:1036C000008B000810B5054B5B5CC35823F06063AA
:1036D0001343024C645C035110BD0000A08A000833
:1036E00010B5054B5B5CC35823F400231343024C15
:1036F000645C035110BD0000008B000810B5064B40
:103700005B5C03445B686FF30F031343024C645C20
:103710000444636010BD0000008B000810B5054B29
:103720005B5CC35823F0C0031343024C645C035139
:1037300010BD0000A08A000810B5044B5B5C034478
:103740001B69024C645C0444226110BD008B0008BC
:10375000024B5B5C0344DA6070470000008B00089A
:1037600010B5054B5B5CC35823F480631343024CD4
:10377000645C035110BD0000A08A000810B5054B21
:103780005B5CC35823F4C0431343024C645C035195
:1037900010BD0000A08A000810B5054B5B5CC35843
:1037A00023F490731343024C645C035110BD00007A
:1037B000A08A0008024B5B5C03449A6070470000DB
:1037C000008B000810B5054B5B5CC35823F40073F5
:1037D0001343024C645C035110BD0000A08A000832
:1037E00010B5054B5B5CC35823F4C0531343024C24
:1037F000645C035110BD0000A08A000810B5054BA1
:103800005B5CC35823F440331343024C645C0351A4
:1038100010BD0000A08A0008F0B502460B46002447
:103820000021186890FAA0F0B0FA80F48AE001252F
:10383000A540186800EA050100297DD058680128D4
:1038400002D0586802281CD19868956891FAA1F6B0
:10385000B6FA86F677000326BE40B54391FAA1F684
:10386000B6FA86F6760000FA06F63543956000BF94
:10387000D86855688D4301FB00F63543556000BF9D
:1038800000BF1869D56891FAA1F6B6FA86F67700F6
:103890000326BE40B54391FAA1F6B6FA86F6760045
:1038A00000FA06F63543D56000BF5868022831D1CA
:1038B00091FAA1F0B0FA80F0082814D25869156A7C
:1038C00091FAA1F6B6FA86F6B7000F26BE40B543C8
:1038D00091FAA1F6B6FA86F6B60000FA06F6354376
:1038E000156200BF16E05869556A0E0A96FAA6F6E8
:1038F000B6FA86F6B7000F26BE40B5430E0A96FA12
:10390000A6F6B6FA86F6B60000FA06F63543556214
:1039100000BF00BF5868156891FAA1F6B6FA86F69E
:1039200077000326BE40B54391FAA1F6B6FA86F6B3
:10393000760000FA06F600E003E03543156000BFAC
:1039400000BF641C1868E04000287FF470AFF0BD31
:1039500010B5044601F0CAFA2060206801F092FA1E
:103960006060606801F09EFAA060606801F0ACFAE7
:10397000E06010BD02480068C0F388107047000086
:103980000438024030B50246012300BF1068C0F37E
:10399000801038BBD1E9000420438C682043CC68F8
:1039A00020430C6920434C6920438C692043CC6937
:1039B00020430C6A204314684FF6BF75AC43204384
:1039C0001060506820F004004C6940EA14405060D8
:1039D000086AB0F5005F04D1486A84B2146100BF80
:1039E00000BF0023D06920F40060D061184630BDCC
:1039F000026A0A4302627047016821F08001016097
:103A00007047816821F080018160704710B50246DF
:103A100013682C4882420ED0B2F1804F0BD02A4856
:103A2000824208D02948824205D02948824202D0E9
:103A30002848824204D123F070004C6840EA040315
:103A40002048824220D0B2F1804F1DD01E488242D1
:103A50001AD01E48824217D01D48824214D01D48F9
:103A6000824211D01C4882420ED01C4882420BD0A8
:103A70001B48824208D01B48824205D01A48824225
:103A800002D01A48824204D123F44070CC6840EA44
:103A9000040313608868D06200BF0888906200BF8A
:103AA0000848824202D00B48824203D10869106361
:103AB00000BF00BF00BF506940F00100506100BF6F
:103AC000002010BD0000014000040040000800403C
:103AD000000C00400004014000400140004401404F
:103AE0000048014000180040001C00400020004039
:103AF00070B50246012901D1002416E0042901D144
:103B0000012412E0102901D102240EE0402901D144
:103B100003240AE0B1F5807F01D1042405E0B1F56A
:103B2000806F01D1052400E006242346064CE55CA5
:103B300002F1180428190468044DEE5C0425B54010
:103B4000AC43046070BD0000A88A0008AF8A00087A
:103B500070B50246012901D1002416E0042901D1E3
:103B6000012412E0102901D102240EE0402901D1E4
:103B700003240AE0B1F5807F01D1042405E0B1F50A
:103B8000806F01D1052400E006242346064CE55C45
:103B900002F1180428190468044DEE5C0825B540AC
:103BA0002C43046070BD0000A88A0008AF8A00089A
:103BB0002DE9F04106460C4615460127012C08D098
:103BC000102C0CD0B4F5807F0FD0B4F5805F18D1E5
:103BD00011E02946304600F029FF074612E0294649
:103BE000304600F063FF07460CE02946304600F0FF
:103BF000A3FF074606E02946304600F0DDFF0746F2
:103C000000E000BF00BF3846BDE8F0814163704767
:103C10008163704781637047426822F070020A43F3
:103C20004260704708B50168009100BF416800918B
:103C300000BF08BD6FF0200101607047016921F4E9
:103C400090410161416921F02A0141617047C168D9
:103C500041F40051C1607047C16841F40051C16036
:103C6000704700BF00BF00F1140252E8002F42F07D
:103C7000400100F1140242E80013002BF3D100BF11
:103C8000704700BF00BF00F1140252E8002F42F05D
:103C9000800100F1140242E80013002BF3D100BFB1
:103CA000704700BF00BF00F10C0252E8002F42F045
:103CB000100100F10C0242E80013002BF3D100BF09
:103CC000704700002DE9FF4104460D4601270026FC
:103CD000204600F068F8002845D1E9686868084384
:103CE00029690843A9690843E16849F20C629143D4
:103CF0000843E060A868216921F440510143216133
:103D000000BF6869616921F440710143616100BFCE
:103D10006846FFF71DFE1648844201D1039E17E056
:103D20001448844201D1029E12E01348844201D11A
:103D3000029E0DE01148844201D1039E08E0104824
:103D4000844201D1029E03E00E48844200D1029ECB
:103D50004EB1286838B10027314620462B68AA6941
:103D600000F026F800BF384604B0BDE8F08100003E
:103D70000010014000440040004800400014014091
:103D8000004C00400050004001460868C0F300109D
:103D9000704701460868C0F3401070470146086844
:103DA000C0F3801070470146C868C0F340307047C8
:103DB0002DE9FC5F06460C4691461D46B9F5004FBD
:103DC00068D10220A0FB057003461920A4FB00A0C7
:103DD00001463A465046FCF755FA6421B0FBF1F033
:103DE0004FEA001A0220A0FB05710B461920A4FB24
:103DF00000B13A465846FCF745FA83460220A0FB3C
:103E0000057003461920A4FB00013A46CDE90001E4
:103E1000FCF738FA6421B0FBF1F000EBC00101EBD4
:103E20000010ABEB8000322101EBC0006421B0FB3D
:103E3000F1F000F0F8000AEB400A0220A0FB057048
:103E400003461920A4FB00B13A465846FCF71AFA7B
:103E500083460220A0FB057003461920A4FB000145
:103E60003A46CDE90001FCF70DFA6421B0FBF1F010
:103E700000EBC00101EB0010ABEB8000322101EB45
:103E8000C0006421B0FBF1F000F00700504480B2A4
:103E9000B06067E00420A0FB057003461920A4FB76
:103EA00000A001463A465046FCF7ECF98246042051
:103EB000A0FB05711920A4FB00B084463A460B46CE
:103EC00058466146FCF7DEF96421B0FBF1F000EBE7
:103ED000C00101EB0010AAEB8000322101EB0010C1
:103EE0006421B0FBF1F000F0F00A0420A0FB0570A3
:103EF00003461920A4FB00B001463A465846FCF799
:103F0000C1F96421B0FBF1F00AEB001A0420A0FB18
:103F1000057003461920A4FB00B13A465846FCF749
:103F2000B1F983460420A0FB057003461920A4FBC9
:103F300000013A46CDE90001FCF7A4F96421B0FB89
:103F4000F1F000EBC00101EB0010ABEB800032217F
:103F500001EB00106421B0FBF1F000F00F005044C1
:103F600080B2B060BDE8FC9F1FB5002000900190BA
:103F70000290039000211748816217481549086094
:103F80004FF4803048600021124881600161017661
:103F900080F82010C162114981620021C1600121B5
:103FA000C161002180F8301001214161FDF768FCFA
:103FB00008B1FDF76DFA0D2000900120019000205E
:103FC000029069460348FDF791FB08B1FDF760FADE
:103FD0001FBD00008C030020002001400100000FE5
:103FE00010B51048104908600320486000210E48B1
:103FF0008160C1604FF4002101614FF440114161C3
:104000000021017601214176002181760121C176CE
:10401000002101774177FEF7FCF808B1FDF738FA87
:1040200010BD000000640040D403002010B510480B
:10403000104908600320486000210E488160C1607B
:104040004FF4002101614FF44011416100210176DC
:1040500001214176002181760121C176002101777D
:104060004177FEF7D6F808B1FDF712FA10BD00004F
:1040700000680040FC03002010B5054805490860B1
:104080000846FEF7DAFA08B1FDF702FA10BD0000A3
:10409000003002400000002070B54FF48000FFF7B0
:1040A0008FFA4FF40010FFF78BFA02F0BFFC0546C1
:1040B0000022052100F09AFC044621460D2002F062
:1040C000C5FC0D2002F0A4FC02F0B0FC0546002265
:1040D000052100F08BFC04462146102002F0B6FCBE
:1040E000102002F095FC02F0A1FC054600220521FB
:1040F00000F07CFC04462146112002F0A7FC1120B0
:1041000002F086FC02F092FC05460022052100F038
:104110006DFC04462146392002F098FC392002F05B
:1041200077FC02F083FC05460022052100F05EFCCE
:10413000044621463A2002F089FC3A2002F068FC4D
:1041400002F074FC05460022052100F04FFC0446F5
:104150002146452002F07AFC452002F059FC02F08D
:1041600065FC05460022052100F040FC044621467E
:10417000462002F06BFC462002F04AFC70BD0000B5
:1041800000B587B0142102A8FCF7C6F800BF0020D4
:1041900001904848006840F0100046490860084611
:1041A000006800F01000019000BF00BF00BF0020B9
:1041B00001900846006840F08000086008460068EA
:1041C00000F08000019000BF00BF00BF0020019000
:1041D0000846006840F0040008600846006800F0E7
:1041E0000400019000BF00BF00BF002001900846FE
:1041F000006840F0010008600846006800F0010017
:10420000019000BF00BF00BF002001900846006879
:1042100040F0080008600846006800F008000190BF
:1042200000BF00BF00BF002001900846006840F0BA
:10423000020008600846006800F00200019000BF1C
:1042400000BF002204211C48FEF726FB002220218B
:104250001A48FEF721FB01224FF47F411648FEF772
:104260001BFB01229F211648FEF716FB4FF6047038
:1042700002900120039004900220059002A90E48AC
:10428000FEF706FA202002900120039004900220FD
:10429000059002A90948FEF7FBF99F200290012032
:1042A000039004900220059002A90548FEF7F0F95A
:1042B00007B000BD30380240001002400008024044
:1042C000000C024010B5074807490860002048600C
:1042D00040F6354104488160FEF7EAFA08B1FDF77F
:1042E000D7F810BD003000402404002000B591B084
:1042F000282107A8FCF710F8182101A8FCF70CF8F2
:104300004FF48050FFF778F90120FFF759F9E020CA
:104310000190022002900320039000200490059059
:104320000520069001A91448FFF776FA00200790AF
:104330004FF4827008900020099002200A9000201B
:104340000B904FF400700C9038200D9080200E9050
:1043500000200F900A20109007A90848FFF712FBD1
:1043600000200649496821F010010143034A5160C9
:1043700000BF11B000BD000000000240003001404D
:1043800000B593B014210EA8FBF7C6FF202106A8A4
:10439000FBF7C2FF18216846FBF7BEFF0820FFF7B6
:1043A0001DF95320ADF8380000200F9041F28730FE
:1043B0001090002011900EA92548FFF727FB2448F4
:1043C000FFF71AFB00202249896844F20702914353
:1043D00001431F4A916000BF01211046FFF7B8FB5F
:1043E0006020069000200790089009900A9006AA85
:1043F00001211748FFF7DCFB01211548FFF778FB87
:1044000010211348FFF7A4FB06AA10211048FFF75C
:10441000CFFB10210E48FFF76BFB00210C48FFF784
:10442000FBFB0B48FFF7EDFA0120FFF7C9F803206B
:10443000009002200190002002900390049002203E
:10444000059069460348FFF7E7F913B000BD000087
:10445000000C00400000024030B585B014216846D1
:10446000FBF75AFF2020FFF7B9F802F0DFFA054604
:104470000022052100F0BAFA04462146372002F056
:10448000E5FA372002F0C4FA5320ADF8000000200E
:1044900001904FF6FF70029069460748FFF7B6FAA1
:1044A0000548FFF7A9FA00210348FFF7B5FB0248CA
:1044B000FFF7A7FA05B030BD0014004030B58DB04D
:1044C0001C2106A8FBF728FF18216846FBF724FFEC
:1044D0004FF40020FFF782F80420FFF771F84FF443
:1044E0008060009002200190032002900020039041
:1044F00004900820059069463548FFF78DF94FF480
:1045000000600090022001900320029000200390A0
:10451000012004900820059069462D48FFF77CF99A
:104520004FF0006202212B48FFF7CCF80022022155
:104530002848FFF7F3F84FF4403202212548FFF7EF
:104540005DF94FF4807202212248FFF725F900221D
:1045500002212048FFF736F94FF4806202211D48FE
:10456000FFF7FEF8002202211A48FFF739F900226E
:1045700002211848FFF702F902211648FFF752F806
:1045800002F054FA05460022052100F02FFA0446F5
:104590002146342002F05AFA342002F039FA0E484B
:1045A00006900020079008904FF480600990042046
:1045B0000A9000200B900C9006A90848FFF782FB98
:1045C0000648FFF73BFB0548FFF741FB0DB030BD48
:1045D0000008024000600240A0860100004C00403C
:1045E00030B58DB01C2106A8FBF796FE1821684651
:1045F000FBF792FE1020FEF7FFFF0120FEF7E0FF21
:104600004FF4C0600090022001900320029000202F
:10461000039004900720059069464448FFF7FCF892
:104620004FF0006202214248FFF74CF800220221BD
:104630003F48FFF773F84FF4403202213C48FFF740
:10464000DDF84FF4807202213948FFF7A5F8002207
:1046500002213748FFF7B6F84FF480620221344850
:10466000FFF77EF8002202213148FFF7B9F8002257
:1046700002212F48FFF782F802212D48FEF7D2FFD2
:104680004FF0006207212A48FFF71CF8402207215B
:104690002748FFF743F84FF4003207212448FFF77B
:1046A000ADF8002207212248FFF776F80022072103
:1046B0001F48FFF787F84FF4806207211C48FFF777
:1046C0004FF8002207211A48FFF78AF80022072135
:1046D0001748FFF753F807211548FEF7A3FF02F02C
:1046E000A5F905460022052100F080F9044621467F
:1046F000252002F0ABF9252002F08AF94FF416507C
:10470000069000200790089009900C200A90002045
:104710000B900C9006A90748FFF7D4FA0548FFF75D
:104720008DFA0448FFF793FA0DB030BD0000024047
:10473000006402400010014030B58DB01C2106A875
:10474000FBF7EAFD18216846FBF7E6FD4FF4003061
:10475000FEF744FF0820FEF733FF602000900220A0
:104760000190032002900020039004900720059000
:1047700069464448FFF750F84FF00062052142486F
:10478000FEF7A0FF002205213F48FEF7C7FF4FF4C8
:10479000403205213C48FFF731F84FF48072052183
:1047A0003948FEF7F9FF002205213748FFF70AF8DC
:1047B0004FF4806205213448FEF7D2FF0022052124
:1047C0003148FFF70DF8002205212F48FEF7D6FFEC
:1047D00005212D48FEF726FF4FF0006206212A48EA
:1047E000FEF770FF402206212748FEF797FF4FF49F
:1047F000003206212448FFF701F800220621224852
:10480000FEF7CAFF002206211F48FEF7DBFF4FF428
:10481000806206211C48FEF7A3FF002206211A48E9
:10482000FEF7DEFF002206211748FEF7A7FF06214C
:104830001548FEF7F7FE02F0F9F8054600220521BB
:1048400000F0D4F804462146262002F0FFF8262086
:1048500002F0DEF84FF4E130069000200790089057
:1048600009900C200A9000200B900C9006A9074894
:10487000FFF728FA0548FFF7E1F90448FFF7E7F9E1
:104880000DB030BD000C024000600240004400400A
:1048900030B58DB01C2106A8FBF73EFD18216846F7
:1048A000FBF73AFD2020FEF7A7FE0420FEF788FE66
:1048B000C02000900220019003200290002003906D
:1048C00004900820059069464348FEF7A5FF4FF085
:1048D000206201214148FEF7F5FE002201213F48F8
:1048E000FEF71CFF4FF4403201213C48FEF786FFE3
:1048F000002201213948FEF74FFF002201213748ED
:10490000FEF760FF4FF4806201213448FEF728FF74
:10491000002201213148FEF763FF002201212F48C8
:10492000FEF72CFF01212D48FEF77CFE4FF02062A0
:1049300006212A48FEF7C6FE402206212748FEF738
:10494000EDFE4FF4003206212448FEF757FF002207
:1049500006212248FEF720FF002206211F48FEF70D
:1049600031FF4FF4806206211C48FEF7F9FE002259
:1049700006211A48FEF734FF002206211748FEF7E9
:10498000FDFE06211548FEF74DFE02F04FF80546E4
:104990000022052100F02AF804462146472002F0B3
:1049A00055F8472002F034F84FF4E130069000202B
:1049B0000790089009900C200A9000200B900C9012
:1049C00006A90748FFF77EF90548FFF737F90448BD
:1049D000FFF73DF90DB030BD000802400064024011
:1049E0000014014000BFFEE700BFFEE7F0B503463C
:1049F0000C4603F00701C1F10700042801D9042087
:104A000001E0C1F107000646081D072801D2002079
:104A100000E0C81E05460120B040401E2040A840CE
:104A20000127AF407F1E17403843F0BD70B50246E6
:104A3000106A20F001001062136A5568946924F02E
:104A4000030424F070000E6840EA060423F002001C
:104A50000E6940EA060323F001004E6840EA0603AF
:104A60001048824202D01048824213D123F008003D
:104A70004E6940EA860323F004008E6840EA86030C
:104A800025F480708E6940EA060525F40070CE6931
:104A900040EA460555609461C868506300BF1362E0
:104AA000002070BD00000140000401402DE9F041EC
:104AB00004460D46206A20F010002062266AD4F8D1
:104AC0000480A76927F4407727F4E040296840EA8A
:104AD000012726F02000296940EA011626F010007F
:104AE000696840EA01161248844202D011488442A3
:104AF00013D126F08000696940EA811626F0400053
:104B0000A96840EA811628F48060A96940EA810812
:104B100028F40060E96940EAC108C4F80480A7618C
:104B20002046E968FFF774F826620020BDE8F081AE
:104B3000000001400004014070B50246106A20F4F4
:104B400080701062136A5568D46924F0030424F05D
:104B500070000E6840EA060423F400700E6940EA13
:104B6000062323F480704E6840EA062310488242F0
:104B700002D01048824213D123F400604E6940EA0B
:104B8000862323F480608E6840EA862325F48050D3
:104B90008E6940EA061525F40050CE6940EA4615B4
:104BA0005560D461C868D06300BF1362002070BD37
:104BB000000001400004014070B50246106A20F474
:104BC00080501062146A5568D36923F4407323F44B
:104BD000E0400E6840EA062324F400500E6940EAE3
:104BE000063424F480504E6840EA06340948824274
:104BF00002D00948824204D125F480408E6940EAFF
:104C000086155560D361C868106400BF1462002027
:104C100070BD00000000014000040140B0EE401AE9
:104C200010B99FED790A704790ED100A80ED110AD6
:104C300090ED0F0A80ED100AC0ED060A80ED071A0C
:104C400030EEC10A80ED0F0A0178002975D190ED90
:104C5000010AD0ED0F1A20EE210A80ED090A90ED2D
:104C60000A0AD0ED021A90ED0F2A01EE820A80EDB9
:104C70000A0A90ED0D0A80ED0E0A90ED0C0A80ED07
:104C80000D0A90ED0F0AD0ED101A30EE610A80ED9A
:104C90000C0A90ED030AD0ED0C1A20EE210A80EDEB
:104CA0000B0A90ED0A0AD0ED051AB4EEE10AF1EE16
:104CB00010FA04DD90ED050A80ED0A0A10E090ED8F
:104CC0000A0AD0ED051AF1EE611AB4EEE10AF1EE2E
:104CD00010FA05D290ED050AB1EE400A80ED0A0AFD
:104CE00090ED090AD0ED0A1A30EE210AD0ED0B1A28
:104CF00030EE210A80ED080A90ED080AD0ED041A82
:104D0000B4EEE10AF1EE10FA04DD90ED040A80ED54
:104D1000080A76E090ED080AD0ED041AF1EE611A67
:104D2000B4EEE10AF1EE10FA6BD290ED040AB1EEA6
:104D3000400A80ED080A64E0FFE70178012960D1AC
:104D400090ED0F0AD0ED101A30EE610AD0ED011A85
:104D500020EE210A80ED090A90ED020AD0ED0F1A2B
:104D600020EE210A80ED0A0A90ED0D0A80ED0E0A70
:104D700090ED0C0A80ED0D0A90ED0F0AD0ED101A9F
:104D8000B0EE002A02EE610AD0ED111A30EE210ACF
:104D900080ED0C0A90ED030AD0ED0C1A20EE210AEA
:104DA00080ED0B0A90ED090AD0ED0A1A30EE210AC7
:104DB000D0ED0B1A30EE210AD0ED081A30EE210AA0
:104DC00080ED080A90ED080AD0ED041AB4EEE10A6D
:104DD000F1EE10FA04DD90ED040A80ED080A10E00F
:104DE00090ED080AD0ED041AF1EE611AB4EEE10A72
:104DF000F1EE10FA05D290ED040AB1EE400A80ED12
:104E0000080A90ED080A0EE70000000000B970479C
:104E10009FED100A80ED110A80ED100A80ED0F0A57
:104E20009FED0C0A80ED0E0A80ED0D0A80ED0C0A54
:104E30009FED080A80ED0B0A80ED0A0A80ED090A51
:104E400080ED080A9FED030A80ED060A80ED070A4F
:104E500000BFDCE70000000010B503465C1A002C20
:104E600005DD944201DD11440AE0194608E0002CFA
:104E700006DA5042844202DA5042014400E0194608
:104E8000084610BD014600BF0448006800F0F0006D
:104E90000009034A125C21FA02F070470838024008
:104EA000E88A0008014600BF0548006800F4E050A9
:104EB000044A02EB9020027821FA02F070470000C9
:104EC00008380240F88A0008014600BF054800681B
:104ED00000F46040044A02EB5030027821FA02F0FC
:104EE0007047000008380240F88A000810B5002416
:104EF00000BF0C48006800F00C0020B1042804D06A
:104F0000082809D103E0084C08E0084C06E0082016
:104F100000F00EF8044601E0034C00BF00BF20463D
:104F200010BD0000083802400024F40000127A008E
:104F30002DE9F041044600250026002700BF154852
:104F4000006800F4800006461EB1B6F5800F04D15B
:104F500001E0114D03E0114D01E00F4D00BF00BF16
:104F6000082C14D100BF0B48006800F03F00B5FBCF
:104F7000F0F8FEF7FFFC08FB00F80648006800F4B4
:104F80004030012101EB10404000B8FBF0F73846FB
:104F9000BDE8F081043802400024F40000127A00D9
:104FA0001FE04FF0FF330F4A1946002003F09AFC30
:104FB000012816D10B4800680078042807D10A4858
:104FC000FDF7A5FC07490968486801F0CBFE0548D4
:104FD00000680078062804D102490968486802F090
:104FE000B1FBDEE74C00002024040020014600292C
:104FF00001DD08467047484200B2FBE710B501F0FA
:105000002FF901F0CDF800F0F9FF10BD2DE9F74FB1
:1050100082B0834617462648009000BF009800786B
:1050200008B901F00DFB00BF0BEB4B0120486030CD
:1050300000EBC106DDF80C903569D6F80CA04FF0F6
:105040000008554517D9B068441BBC4201D2204620
:1050500000E03846044670682844019022464846DD
:105060000199FBF740F9A044A1443F1B2544B068D7
:10507000A84200D10025AAEB0504BC4201D220467B
:1050800000E0384604465CB170682844019022462E
:1050900048460199FBF727F9A044A1443F1B25444A
:1050A000B8F1000F00D03561404605B0BDE8F08F83
:1050B0007C0800202DE9F74F82B082461446DDF8C7
:1050C0000CB00AEB4A01224800EBC105D5F810905C
:1050D000EE68686830440190B14528D8A868801B04
:1050E000471EA7420AD3224659460198FBF7FBF810
:1050F0003019E860012005B0BDE8F08F4F44A742A9
:1051000023D3A868A0EB0608424659460198FBF74E
:10511000EAF8A4EB08043CB1686801900BEB0801C5
:1051200022460198FBF7DFF8EC600120E3E7A9EBEA
:105130000600471EA74208D3224659460198FBF7AE
:10514000D2F83019E8600120D5E70020D3E700004D
:105150009408002070B5EFF311800646202080F3FC
:10516000118800BF00BF284801F01AFB05462C46F5
:105170002046264A516805E0CAB242F0800200F893
:10518000012BC9097F29F7D800F8011B04462046E6
:105190001E4A916805E0CAB242F0800200F8012B75
:1051A000C9097F29F7D800F8011B04462046174A91
:1051B000116905E0CAB242F0800200F8012BC9096A
:1051C0007F29F7D800F8011B04462046002105E09E
:1051D000CAB242F0800200F8012BC9097F29F7D832
:1051E00000F8011B044618222146284601F0DCFA8B
:1051F000F0B280F3118800BF00BF0448406A10B1CC
:105200000249486A804770BD5C11002034110020BB
:1052100070B5EFF311800446202080F3118800BFA1
:1052200000BF074801F0BCFA05461122294628466E
:1052300001F0BAFAE0B280F3118800BF00BF70BD80
:105240005C1100202DE9F0410446EFF31180074680
:10525000202080F3118800BF00BF114801F0A0FAA0
:1052600005462E460F480069241A3046214605E0BF
:10527000CAB242F0800200F8012BC9097F29F7D891
:1052800000F8011B064608223146284601F08CFA38
:10529000F8B280F3118800BF00BFBDE8F0810000C4
:1052A0005C110020341100202DE9F0410446EFF399
:1052B00011800746202080F3118800BF00BF1148ED
:1052C00001F06EFA05462E460F480069241A304652
:1052D000214605E0CAB242F0800200F8012BC9095C
:1052E0007F29F7D800F8011B0646042231462846DC
:1052F00001F05AFAF8B280F3118800BF00BFBDE890
:10530000F08100005C110020341100202DE9F041F3
:105310000446EFF311800746202080F3118800BF78
:1053200000BF114801F03CFA05462E460F480069BF
:10533000241A3046214605E0CAB242F0800200F845
:10534000012BC9097F29F7D800F8011B0646062260
:105350003146284601F028FAF8B280F3118800BFE0
:1053600000BFBDE8F08100005C1100203411002076
:1053700070B50C48006A78B10A48006A006858B1F4
:105380000849096A0868804704460D462A462146AE
:105390000D2000F039F804E0034841680C2000F0CB
:1053A00005F870BD34110020001000E02DE9F04137
:1053B00005460E46EFF311808046202080F31188C9
:1053C00000BF00BF0F4801F0EBF9044627463846FE
:1053D000314605E0CAB242F0800200F8012BC9094B
:1053E0007F29F7D800F8011B07462A463946204690
:1053F00001F0DAF908F0FF0080F3118800BF00BF68
:10540000BDE8F0815C1100202DE9F04706460F460B
:105410009046EFF311808146202080F3118800BF71
:1054200000BF174801F0BCF905462C462046394616
:1054300005E0CAB242F0800200F8012BC9097F29B9
:10544000F7D800F8011B04462046414605E0CAB2E1
:1054500042F0800200F8012BC9097F29F7D800F833
:10546000011B044632462146284601F09DF909F009
:10547000FF0080F3118800BF00BFBDE8F087000087
:105480005C1100202DE9F05F06460F4690469946D4
:10549000DDF828A0EFF311808346202080F31188E7
:1054A00000BF00BF244801F07BF905462C4620468A
:1054B000394605E0CAB242F0800200F8012BC90962
:1054C0007F29F7D800F8011B04462046414605E035
:1054D000CAB242F0800200F8012BC9097F29F7D82F
:1054E00000F8011B04462046494605E0CAB242F0D6
:1054F000800200F8012BC9097F29F7D800F8011BA9
:1055000004462046514605E0CAB242F0800200F847
:10551000012BC9097F29F7D800F8011B0446324640
:105520002146284601F040F90BF0FF0080F3118876
:1055300000BF00BFBDE8F09F5C1100202DE9F84FCF
:1055400006460F4690469946DDE90AABEFF3118017
:105550000090202080F3118800BF00BF2B4801F08D
:105560001FF905462C462046394605E0CAB242F0EE
:10557000800200F8012BC9097F29F7D800F8011B28
:1055800004462046414605E0CAB242F0800200F8D7
:10559000012BC9097F29F7D800F8011B04462046D2
:1055A000494605E0CAB242F0800200F8012BC90961
:1055B0007F29F7D800F8011B04462046514605E034
:1055C000CAB242F0800200F8012BC9097F29F7D83E
:1055D00000F8011B04462046594605E0CAB242F0D5
:1055E000800200F8012BC9097F29F7D800F8011BB8
:1055F000044632462146284601F0D6F80098C0B24B
:1056000080F3118800BF00BFBDE8F88F5C11002057
:1056100070B50446EFF311800546202080F3118811
:1056200000BF00BF074801F0BBF8064622463146DE
:10563000304601F0B9F8E8B280F3118800BF00BF2E
:1056400070BD00005C1100202DE9F0470646274898
:105650000068002847D025480468002703E0246933
:1056600004B902E07F1CB742F9D300BF002C3AD046
:10567000EFF311808146202080F3118800BF00BF26
:105680001B4801F08DF8804645462846314605E026
:10569000CAB242F0800200F8012BC9097F29F7D86D
:1056A00000F8011B05462846A16805E0CAB242F091
:1056B000800200F8012BC9097F29F7D800F8011BE7
:1056C000054680222846216800F0F2FF0546162292
:1056D0002946404601F068F809F0FF0080F3118880
:1056E00000BF00BF00BFBDE8F08700001803002026
:1056F0005C11002010B50748006848B105480468EF
:1057000000BFE06808B1E06880472469002CF8D148
:1057100010BD00001803002070B5EFF3118006469D
:10572000202080F3118800BF00BF0F4801F038F837
:105730000446254628460D4A117805E0CAB242F0D3
:10574000800200F8012BC9097F29F7D800F8011B56
:1057500005461B222946204601F026F8F0B280F3C8
:10576000118800BF00BF70BD5C1100201C03002029
:105770002DE9F0410546EFF311800746202080F324
:10578000118800BF00BF3B4801F00AF806463446C6
:105790002046394B2A681B69D11A05E0CAB242F08B
:1057A000800200F8012BC9097F29F7D800F8011BF6
:1057B00004462046A96805E0CAB242F0800200F81B
:1057C000012BC9097F29F7D800F8011B04462022C4
:1057D0002046696800F06CFF0446092221463046E5
:1057E00000F0E2FF34462046234B2A681B69D11A99
:1057F00005E0CAB242F0800200F8012BC9097F29F6
:10580000F7D800F8011B04462046E96805E0CAB253
:1058100042F0800200F8012BC9097F29F7D800F86F
:10582000011B04462046296905E0CAB242F0800205
:1058300000F8012BC9097F29F7D800F8011B04469D
:105840002046002105E0CAB242F0800200F8012B98
:10585000C9097F29F7D800F8011B04461522214603
:10586000304600F0A1FFF8B280F3118800BF00BFFE
:10587000BDE8F0815C1100203411002010B506480D
:10588000006A38B10448006A406818B10249096AE0
:105890004868804710BD00003411002001460248CE
:1058A0000069081A704700003411002070B501200B
:1058B0003A490870EFF311800446202080F31188E4
:1058C00000BF00BF48780A223549FFF7F3FBE0B27A
:1058D00080F3118800BF00BF0A20FFF799FEEFF3A5
:1058E00011800646202080F3118800BF00BF2D489C
:1058F00000F056FF05462C462046284A516805E030
:10590000CAB242F0800200F8012BC9097F29F7D8FA
:1059100000F8011B04462046204A916805E0CAB2FF
:1059200042F0800200F8012BC9097F29F7D800F85E
:10593000011B04462046194A116905E0CAB242F02B
:10594000800200F8012BC9097F29F7D800F8011B54
:1059500004462046002105E0CAB242F0800200F869
:10596000012BC9097F29F7D800F8011B044618222A
:105970002146284600F018FFF0B280F3118800BFDE
:1059800000BF0648406A10B10449486A8047FFF7E3
:10599000EFFCFFF773FFFFF7BFFE70BD341100206F
:1059A0003C8B00085C11002070B5EFF311800546B8
:1059B000202080F3118800BF00BF0A4800F0F0FEED
:1059C00004460948007838B10B222146204600F0F1
:1059D000EBFE002004490870E8B280F3118800BF94
:1059E00000BF70BD5C110020341100202DE9F04192
:1059F0000546EFF311800646202080F3118800BF92
:105A000000BF194800F0CCFE0746802229463846E0
:105A100000F04EFE04462046012105E0CAB242F0E5
:105A2000800200F8012BC9097F29F7D800F8011B73
:105A300004462046002105E0CAB242F0800200F888
:105A4000012BC9097F29F7D800F8011B04461A2247
:105A50002146384600F0A8FEF0B280F3118800BF5E
:105A600000BFBDE8F08100005C1100202DE9F84383
:105A700005460C4616461F46DDF82080052221A16A
:105A80002046FAF754FC08B9BDE8F8831F480068BF
:105A9000082803D31E48FFF7A9FFF5E71B48006855
:105AA00000EB80001B4941F820501848006800EBCB
:105AB000800001EB800044601448006800EB800027
:105AC00001EB800086601148006800EB800001EB6C
:105AD0008000C7600D48006800EB800001EB80008B
